:0E00000025C0FECFFDCFFCCFDDC0FACFF9CF7B
:10000E00F8CFF7CFF6CFF5CFF4CFF3CFF2CFF1CFC6
:10001E00F0CFEFCFEECFEDCF00000C0000000000D0
:10002E0040792430191202780010010002002600D7
:10003E000600040028000A0060012E000000F8945B
:10004E00EE27ECBBF1E0FBBFEBBFE5BF8DE0A2E01E
:10005E00BB27ED938A95E9F780E094E0A0E6ED9357
:10006E000197E9F7E8E3F0E085919591009761F04B
:10007E00A591B59105901590BF01F00105900D92D7
:10008E000197E1F7FB01F0CFEFE5EDBFE4E0EEBF46
:10009E00C0E6D1E010C0AA93E981F0E0E05AFE4F2D
:1000AE00E081E2BBE881E5BB8BE08A95F1F7E0E009
:1000BE00E5BB22960895EFEFE1BBE0E0E2BBE3E0A3
:1000CE00E7BBECE3E8BBE0E0E5BBEFEFE4BBE8E069
:1000DE00E2BDE5E0E5BDE0E0E4BDE3BDE0E4E9BF9F
:1000EE007894B3990FC020FC06C04394E7E1E41561
:1000FE0008F4442405C06394E7E1E61508F4662489
:10010E00B39BFECFB4990FC020FC06C05394EBE313
:10011E00E51508F4552405C09394EBE3E91508F4AE
:10012E009924B49BFECFB59906C0E1E02E266894C3
:10013E0021F8B59BFECFB29905C0C098E89421F87E
:10014E00B59BFECF20FC17C08824E8EC8E1690F4E9
:10015E00A42D52D0A1E09FDFA42D54D0A2E09BDFAE
:10016E00A52D4AD0A4E097DFA52D4CD0A8E093DFB3
:10017E008394EBCF16C08824E8EC8E1690F4A62D4F
:10018E003BD0A1E088DFA62D3DD0A2E084DFA92DD3
:10019E0033D0A4E080DFA92D35D0A8E07CDF839496
:1001AE00EBCF951421F4641411F421FC01C001C0AD
:1001BE00C09A97CFFFCFEA93EFB7EA937394EBE32E
:1001CE00E71508F47724772061F45394EBE3E515F3
:1001DE0008F45524552029F44394E7E1E41508F476
:1001EE00442420FC04C0C19B02C0C19801C0C19A26
:1001FE00E991EFBFE9911895B0E0EAE0F0E01FD089
:10020E00EA930895BB27EAE0F0E01ED0EA93089542
:10021E00F195E195F04008950024112490E1AA0F84
:10022E00BB1F001C111C0E1A1F0A18F40E0E1F1EE7
:10023E0001C0A1609A9599F7FD01D001089512D0E1
:10024E00EBDF0EF4E5DF0895E894B7FF04C0A09548
:10025E00B09511966894F7FDDBDFDEDFFD010EF43D
:10026E00D7DF0895E894F7FF02C0D2DF6894B7FF96
:10027E0006C0A095B095119600F8039400FA089563
:00000001FF
